{
  "_format": "hh-sol-artifact-1",
  "contractName": "EditionsAuction",
  "sourceName": "contracts/EditionsAuction.sol",
  "abi": [
    {
      "inputs": [],
      "stateMutability": "nonpayable",
      "type": "constructor"
    },
    {
      "anonymous": false,
      "inputs": [
        {
          "indexed": false,
          "internalType": "uint256",
          "name": "auctionId",
          "type": "uint256"
        },
        {
          "indexed": false,
          "internalType": "address",
          "name": "editionContract",
          "type": "address"
        },
        {
          "indexed": false,
          "internalType": "bool",
          "name": "approved",
          "type": "bool"
        }
      ],
      "name": "AuctionApprovalUpdated",
      "type": "event"
    },
    {
      "anonymous": false,
      "inputs": [
        {
          "indexed": false,
          "internalType": "uint256",
          "name": "auctionId",
          "type": "uint256"
        },
        {
          "indexed": false,
          "internalType": "address",
          "name": "creator",
          "type": "address"
        },
        {
          "indexed": false,
          "internalType": "address",
          "name": "editionContract",
          "type": "address"
        },
        {
          "indexed": false,
          "internalType": "uint256",
          "name": "startTimestamp",
          "type": "uint256"
        },
        {
          "indexed": false,
          "internalType": "uint256",
          "name": "duration",
          "type": "uint256"
        },
        {
          "indexed": false,
          "internalType": "uint256",
          "name": "startPrice",
          "type": "uint256"
        },
        {
          "indexed": false,
          "internalType": "uint256",
          "name": "endPrice",
          "type": "uint256"
        },
        {
          "indexed": false,
          "internalType": "uint8",
          "name": "numberOfPriceDrops",
          "type": "uint8"
        },
        {
          "indexed": false,
          "internalType": "address",
          "name": "curator",
          "type": "address"
        },
        {
          "indexed": false,
          "internalType": "uint256",
          "name": "curatorRoyaltyBPS",
          "type": "uint256"
        },
        {
          "indexed": false,
          "internalType": "address",
          "name": "auctionCurrency",
          "type": "address"
        }
      ],
      "name": "AuctionCreated",
      "type": "event"
    },
    {
      "anonymous": false,
      "inputs": [
        {
          "indexed": false,
          "internalType": "uint256",
          "name": "price",
          "type": "uint256"
        },
        {
          "indexed": false,
          "internalType": "address",
          "name": "owner",
          "type": "address"
        }
      ],
      "name": "EditionPurchased",
      "type": "event"
    },
    {
      "inputs": [
        {
          "internalType": "uint256",
          "name": "",
          "type": "uint256"
        }
      ],
      "name": "auctions",
      "outputs": [
        {
          "internalType": "address",
          "name": "editionContract",
          "type": "address"
        },
        {
          "internalType": "uint256",
          "name": "startTimestamp",
          "type": "uint256"
        },
        {
          "internalType": "uint256",
          "name": "duration",
          "type": "uint256"
        },
        {
          "internalType": "uint256",
          "name": "startPrice",
          "type": "uint256"
        },
        {
          "internalType": "uint256",
          "name": "endPrice",
          "type": "uint256"
        },
        {
          "internalType": "uint8",
          "name": "numberOfPriceDrops",
          "type": "uint8"
        },
        {
          "internalType": "address",
          "name": "creator",
          "type": "address"
        },
        {
          "internalType": "uint256",
          "name": "stepPrice",
          "type": "uint256"
        },
        {
          "internalType": "uint256",
          "name": "stepTime",
          "type": "uint256"
        },
        {
          "internalType": "bool",
          "name": "approved",
          "type": "bool"
        },
        {
          "internalType": "address",
          "name": "curator",
          "type": "address"
        },
        {
          "internalType": "uint256",
          "name": "curatorRoyaltyBPS",
          "type": "uint256"
        },
        {
          "internalType": "address",
          "name": "auctionCurrency",
          "type": "address"
        }
      ],
      "stateMutability": "view",
      "type": "function"
    },
    {
      "inputs": [
        {
          "internalType": "address",
          "name": "editionContract",
          "type": "address"
        },
        {
          "internalType": "uint256",
          "name": "startTimestamp",
          "type": "uint256"
        },
        {
          "internalType": "uint256",
          "name": "duration",
          "type": "uint256"
        },
        {
          "internalType": "uint256",
          "name": "startPrice",
          "type": "uint256"
        },
        {
          "internalType": "uint256",
          "name": "endPrice",
          "type": "uint256"
        },
        {
          "internalType": "uint8",
          "name": "numberOfPriceDrops",
          "type": "uint8"
        },
        {
          "internalType": "address",
          "name": "curator",
          "type": "address"
        },
        {
          "internalType": "uint256",
          "name": "curatorRoyaltyBPS",
          "type": "uint256"
        },
        {
          "internalType": "address",
          "name": "auctionCurrency",
          "type": "address"
        }
      ],
      "name": "createAuction",
      "outputs": [
        {
          "internalType": "uint256",
          "name": "",
          "type": "uint256"
        }
      ],
      "stateMutability": "nonpayable",
      "type": "function"
    },
    {
      "inputs": [
        {
          "internalType": "uint256",
          "name": "auctionId",
          "type": "uint256"
        }
      ],
      "name": "getSalePrice",
      "outputs": [
        {
          "internalType": "uint256",
          "name": "",
          "type": "uint256"
        }
      ],
      "stateMutability": "view",
      "type": "function"
    },
    {
      "inputs": [
        {
          "internalType": "uint256",
          "name": "auctionId",
          "type": "uint256"
        }
      ],
      "name": "numberCanMint",
      "outputs": [
        {
          "internalType": "uint256",
          "name": "",
          "type": "uint256"
        }
      ],
      "stateMutability": "view",
      "type": "function"
    },
    {
      "inputs": [
        {
          "internalType": "address",
          "name": "dest",
          "type": "address"
        }
      ],
      "name": "payments",
      "outputs": [
        {
          "internalType": "uint256",
          "name": "",
          "type": "uint256"
        }
      ],
      "stateMutability": "view",
      "type": "function"
    },
    {
      "inputs": [
        {
          "internalType": "uint256",
          "name": "auctionId",
          "type": "uint256"
        },
        {
          "internalType": "uint256",
          "name": "amount",
          "type": "uint256"
        }
      ],
      "name": "purchase",
      "outputs": [
        {
          "internalType": "uint256",
          "name": "",
          "type": "uint256"
        }
      ],
      "stateMutability": "payable",
      "type": "function"
    },
    {
      "inputs": [
        {
          "internalType": "uint256",
          "name": "auctionId",
          "type": "uint256"
        },
        {
          "internalType": "bool",
          "name": "approved",
          "type": "bool"
        }
      ],
      "name": "setAuctionApproval",
      "outputs": [],
      "stateMutability": "nonpayable",
      "type": "function"
    },
    {
      "inputs": [
        {
          "internalType": "address payable",
          "name": "payee",
          "type": "address"
        }
      ],
      "name": "withdrawPayments",
      "outputs": [],
      "stateMutability": "nonpayable",
      "type": "function"
    }
  ],
  "bytecode": "0x60a060405234801561001057600080fd5b50600160005560405161002290610063565b604051809103906000f08015801561003e573d6000803e3d6000fd5b5060601b6001600160601b03191660805260018054607860ff19909116179055610070565b61061a80611bf383390190565b60805160601c611b5e6100956000396000818161021c01526111060152611b5e6000f3fe60806040526004361061006b5760003560e01c806331b3eb941461007057806355e91d1614610092578063571a26a0146100c557806370876c9814610172578063973ddb4a14610185578063d9a17be2146101a5578063e2982c21146101c5578063f8eb5fc5146101e5575b600080fd5b34801561007c57600080fd5b5061009061008b36600461172c565b610205565b005b34801561009e57600080fd5b506100b26100ad366004611818565b610286565b6040519081526020015b60405180910390f35b3480156100d157600080fd5b506101596100e0366004611818565b600260208190526000918252604090912080546001820154928201546003830154600484015460058501546006860154600787015460088801546009890154600a909901546001600160a01b039889169a9997989697959660ff808716976101009788900483169791851694919091048216929091168d565b6040516100bc9d9c9b9a999897969594939291906118cc565b6100b261018036600461187a565b610297565b34801561019157600080fd5b506100906101a036600461184a565b6108dc565b3480156101b157600080fd5b506100b26101c0366004611766565b6109d1565b3480156101d157600080fd5b506100b26101e036600461172c565b6110ec565b3480156101f157600080fd5b506100b2610200366004611818565b61118b565b6040516351cff8d960e01b81526001600160a01b037f000000000000000000000000000000000000000000000000000000000000000016906351cff8d9906102519084906004016118b8565b600060405180830381600087803b15801561026b57600080fd5b505af115801561027f573d6000803e3d6000fd5b5050505050565b600061029182611196565b92915050565b6000826102a3816111e3565b6102c85760405162461bcd60e51b81526004016102bf906119ef565b60405180910390fd5b60008481526002602052604090206008015460ff166103295760405162461bcd60e51b815260206004820152601d60248201527f41756374696f6e20686173206e6f74206265656e20617070726f76656400000060448201526064016102bf565b60008481526002602052604090206001015442101561038a5760405162461bcd60e51b815260206004820152601b60248201527f41756374696f6e20686173206e6f74207374617274656420796574000000000060448201526064016102bf565b61039384611196565b6103ca5760405162461bcd60e51b815260206004820152600860248201526714dbdb19081bdd5d60c21b60448201526064016102bf565b60006103d585611208565b9050808410156104335760405162461bcd60e51b815260206004820152602360248201527f4d757374206265206d6f7265206f7220657175616c20746f2073616c6520707260448201526269636560e81b60648201526084016102bf565b60408051600180825281830190925260009160208083019080368337019050509050338160008151811061046957610469611aec565b6001600160a01b03909216602092830291909101909101528161055657604080518381523360208201527f5650c35777c7d4e91bae2d754b3e9d732fa6543ff3fb5ef7427adfecbd37bdbe910160405180910390a160008681526002602052604090819020549051630f6a934960e01b81526001600160a01b0390911690630f6a9349906104fb90849060040161195a565b602060405180830381600087803b15801561051557600080fd5b505af1158015610529573d6000803e3d6000fd5b505050506040513d601f19601f8201168201806040525081019061054d9190611831565b935050506108d5565b600086815260026020526040808220600a015490516370a0823160e01b81526001600160a01b03909116919082906370a08231906105989030906004016118b8565b60206040518083038186803b1580156105b057600080fd5b505afa1580156105c4573d6000803e3d6000fd5b505050506040513d601f19601f820116820180604052508101906105e89190611831565b90506105ff6001600160a01b038316333087611335565b6040516370a0823160e01b81526000906001600160a01b038416906370a082319061062e9030906004016118b8565b60206040518083038186803b15801561064657600080fd5b505afa15801561065a573d6000803e3d6000fd5b505050506040513d601f19601f8201168201806040525081019061067e9190611831565b90508061068b8684611a1e565b146107135760405162461bcd60e51b815260206004820152604c60248201527f5f68616e646c65496e636f6d696e675472616e7366657220746f6b656e20747260448201527f616e736665722063616c6c20646964206e6f74207472616e736665722065787060648201526b1958dd195908185b5bdd5b9d60a21b608482015260a4016102bf565b60008981526002602052604090206008015461010090046001600160a01b031661076a57600089815260026020526040902060050154610765906001600160a01b0385811691610100900416876113a6565b610806565b600089815260026020526040812060090154610795906127109061078f9089906113d6565b906113e9565b60008b8152600260205260409020600801549091506107c6906001600160a01b0386811691610100900416836113a6565b60006107d287836113f5565b60008c815260026020526040902060050154909150610803906001600160a01b0387811691610100900416836113a6565b50505b604080518681523360208201527f5650c35777c7d4e91bae2d754b3e9d732fa6543ff3fb5ef7427adfecbd37bdbe910160405180910390a160008981526002602052604090819020549051630f6a934960e01b81526001600160a01b0390911690630f6a93499061087b90879060040161195a565b602060405180830381600087803b15801561089557600080fd5b505af11580156108a9573d6000803e3d6000fd5b505050506040513d601f19601f820116820180604052508101906108cd9190611831565b965050505050505b5092915050565b816108e6816111e3565b6109025760405162461bcd60e51b81526004016102bf906119ef565b60008381526002602052604090206008015461010090046001600160a01b031633146109625760405162461bcd60e51b815260206004820152600f60248201526e36bab9ba1031329031bab930ba37b960891b60448201526064016102bf565b60008381526002602052604090206001015442106109c25760405162461bcd60e51b815260206004820152601b60248201527f41756374696f6e2068617320616c72656164792073746172746564000000000060448201526064016102bf565b6109cc8383611401565b505050565b600060026000541415610a265760405162461bcd60e51b815260206004820152601f60248201527f5265656e7472616e637947756172643a207265656e7472616e742063616c6c0060448201526064016102bf565b60026000556040516301ffc9a760e01b81526001600160a01b038b16906301ffc9a790610a5e906380ac58cd60e01b906004016119a7565b60206040518083038186803b158015610a7657600080fd5b505afa158015610a8a573d6000803e3d6000fd5b505050506040513d601f19601f82011682018060405250810190610aae91906117fb565b610afa5760405162461bcd60e51b815260206004820152601d60248201527f446f65736e277420737570706f7274204e465420696e7465726661636500000060448201526064016102bf565b6040516301ffc9a760e01b81526001600160a01b038b16906301ffc9a790610b2d906317e28f2d60e11b906004016119a7565b60206040518083038186803b158015610b4557600080fd5b505afa158015610b59573d6000803e3d6000fd5b505050506040513d601f19601f82011682018060405250810190610b7d91906117fb565b610bdd5760405162461bcd60e51b815260206004820152602b60248201527f446f65736e277420737570706f7274205a6f7261204e46542045646974696f6e60448201526a7320696e7465726661636560a81b60648201526084016102bf565b60008a6001600160a01b0316638da5cb5b6040518163ffffffff1660e01b815260040160206040518083038186803b158015610c1857600080fd5b505afa158015610c2c573d6000803e3d6000fd5b505050506040513d601f19601f82011682018060405250810190610c509190611749565b9050336001600160a01b03821614610cb55760405162461bcd60e51b815260206004820152602260248201527f43616c6c6572206d7573742062652063726561746f72206f662065646974696f6044820152616e7360f01b60648201526084016102bf565b868811610d165760405162461bcd60e51b815260206004820152602960248201527f5374617274207072696365206d75737420626520686967686572207468656e20604482015268656e6420707269636560b81b60648201526084016102bf565b6001600160a01b038516610d80578315610d805760405162461bcd60e51b815260206004820152602560248201527f526f79616c7469657320776f756c642062652073656e7420696e746f20746865604482015264081d9bda5960da1b60648201526084016102bf565b6000610d8e8a8a8a8a611474565b600154602082015191925060ff161115610e035760405162461bcd60e51b815260206004820152603060248201527f537465702074696d65206d75737420626520686967686572207468616e206d6960448201526f6e696d75696d20737465702074696d6560801b60648201526084016102bf565b6000610e0e60035490565b9050604051806101a001604052808e6001600160a01b031681526020018d81526020018c81526020018b81526020018a81526020018960ff168152602001846001600160a01b031681526020018360000151815260200183602001518152602001600015158152602001886001600160a01b03168152602001878152602001866001600160a01b03168152506002600083815260200190815260200160002060008201518160000160006101000a8154816001600160a01b0302191690836001600160a01b031602179055506020820151816001015560408201518160020155606082015181600301556080820151816004015560a08201518160050160006101000a81548160ff021916908360ff16021790555060c08201518160050160016101000a8154816001600160a01b0302191690836001600160a01b0316021790555060e0820151816006015561010082015181600701556101208201518160080160006101000a81548160ff0219169083151502179055506101408201518160080160016101000a8154816001600160a01b0302191690836001600160a01b03160217905550610160820151816009015561018082015181600a0160006101000a8154816001600160a01b0302191690836001600160a01b03160217905550905050610ffe600380546001019055565b7f17d978b085d51be1d974075d6a9c8c2ca6d2b3acd7459da63e9eb995f6fd7a2181848f8f8f8f8f8f8f8f8f6040516110989b9a999897969594939291909a8b526001600160a01b03998a1660208c015297891660408b015260608a0196909652608089019490945260a088019290925260c087015260ff1660e08601528316610100850152610120840152166101408201526101600190565b60405180910390a16001600160a01b03871615806110c75750826001600160a01b0316876001600160a01b0316145b156110d7576110d7816001611401565b60016000559c9b505050505050505050505050565b6040516371d4ed8d60e11b81526000906001600160a01b037f0000000000000000000000000000000000000000000000000000000000000000169063e3a9db1a9061113b9085906004016118b8565b60206040518083038186803b15801561115357600080fd5b505afa158015611167573d6000803e3d6000fd5b505050506040513d601f19601f820116820180604052508101906102919190611831565b600061029182611208565b6000818152600260209081526040808320548151630b65b6e760e01b815291516001600160a01b0390911692630b65b6e79260048082019391829003018186803b15801561115357600080fd5b60009081526002602052604090206005015461010090046001600160a01b0316151590565b600081815260026020819052604082209081015460019091015461122b916114ca565b421115611248575060009081526002602052604090206004015490565b6000828152600260205260409020600781015460019091015461126a916114ca565b421015611287575060009081526002602052604090206003015490565b6000828152600260205260408120600101546112a49042906113f5565b600084815260026020526040812060070154919250906112c59083906114d6565b600085815260026020526040812060070154919250906112e99061078f85856113f5565b905061132c6113146112fc600184611a69565b600088815260026020526040902060060154906113d6565b600087815260026020526040902060030154906113f5565b95945050505050565b6040516001600160a01b03808516602483015283166044820152606481018290526113a09085906323b872dd60e01b906084015b60408051601f198184030181529190526020810180516001600160e01b03166001600160e01b0319909316929092179091526114e2565b50505050565b6040516001600160a01b0383166024820152604481018290526109cc90849063a9059cbb60e01b90606401611369565b60006113e28284611a4a565b9392505050565b60006113e28284611a36565b60006113e28284611a69565b60008281526002602090815260409182902060088101805485151560ff199091168117909155905483518681526001600160a01b03909116928101929092528183015290517fb46f4988335ad625129457eeb1dce85f43960baf55c208c4e6be1b4402af59269181900360600190a15050565b604080518082019091526000808252602082015260408051808201909152600080825260208201526114ad60ff841661078f87876113f5565b81526114bc8660ff85166113e9565b602082015295945050505050565b60006113e28284611a1e565b60006113e28284611aac565b6000611537826040518060400160405280602081526020017f5361666545524332303a206c6f772d6c6576656c2063616c6c206661696c6564815250856001600160a01b03166115b49092919063ffffffff16565b8051909150156109cc578080602001905181019061155591906117fb565b6109cc5760405162461bcd60e51b815260206004820152602a60248201527f5361666545524332303a204552433230206f7065726174696f6e20646964206e6044820152691bdd081cdd58d8d9595960b21b60648201526084016102bf565b60606115c384846000856115cb565b949350505050565b60608247101561162c5760405162461bcd60e51b815260206004820152602660248201527f416464726573733a20696e73756666696369656e742062616c616e636520666f6044820152651c8818d85b1b60d21b60648201526084016102bf565b843b61167a5760405162461bcd60e51b815260206004820152601d60248201527f416464726573733a2063616c6c20746f206e6f6e2d636f6e747261637400000060448201526064016102bf565b600080866001600160a01b03168587604051611696919061189c565b60006040518083038185875af1925050503d80600081146116d3576040519150601f19603f3d011682016040523d82523d6000602084013e6116d8565b606091505b50915091506116e88282866116f3565b979650505050505050565b606083156117025750816113e2565b8251156117125782518084602001fd5b8160405162461bcd60e51b81526004016102bf91906119bc565b60006020828403121561173e57600080fd5b81356113e281611b02565b60006020828403121561175b57600080fd5b81516113e281611b02565b60008060008060008060008060006101208a8c03121561178557600080fd5b893561179081611b02565b985060208a0135975060408a0135965060608a0135955060808a0135945060a08a013560ff811681146117c257600080fd5b935060c08a01356117d281611b02565b925060e08a013591506101008a01356117ea81611b02565b809150509295985092959850929598565b60006020828403121561180d57600080fd5b81516113e281611b1a565b60006020828403121561182a57600080fd5b5035919050565b60006020828403121561184357600080fd5b5051919050565b6000806040838503121561185d57600080fd5b82359150602083013561186f81611b1a565b809150509250929050565b6000806040838503121561188d57600080fd5b50508035926020909101359150565b600082516118ae818460208701611a80565b9190910192915050565b6001600160a01b0391909116815260200190565b6001600160a01b038e81168252602082018e9052604082018d9052606082018c9052608082018b905260ff8a1660a083015288811660c083015260e08201889052610100820187905285151561012083015284166101408201526101a08101836101608301526119486101808301846001600160a01b03169052565b9e9d5050505050505050505050505050565b6020808252825182820181905260009190848201906040850190845b8181101561199b5783516001600160a01b031683529284019291840191600101611976565b50909695505050505050565b6001600160e01b031991909116815260200190565b60208152600082518060208401526119db816040850160208701611a80565b601f01601f19169190910160400192915050565b602080825260159082015274105d58dd1a5bdb88191bd95cdb89dd08195e1a5cdd605a1b604082015260600190565b60008219821115611a3157611a31611ac0565b500190565b600082611a4557611a45611ad6565b500490565b6000816000190483118215151615611a6457611a64611ac0565b500290565b600082821015611a7b57611a7b611ac0565b500390565b60005b83811015611a9b578181015183820152602001611a83565b838111156113a05750506000910152565b600082611abb57611abb611ad6565b500690565b634e487b7160e01b600052601160045260246000fd5b634e487b7160e01b600052601260045260246000fd5b634e487b7160e01b600052603260045260246000fd5b6001600160a01b0381168114611b1757600080fd5b50565b8015158114611b1757600080fdfea26469706673582212206c3844cf6a925bde33968a2a6a8ac8d5dc49ff3612ddb6f2d18c48424d1ac47364736f6c63430008060033608060405234801561001057600080fd5b5061001a3361001f565b61006f565b600080546001600160a01b038381166001600160a01b0319831681178455604051919092169283917f8be0079c531659141344cd1fd0a4f28419497f9722a3daafe3b4186f6b6457e09190a35050565b61059c8061007e6000396000f3fe6080604052600436106100555760003560e01c806351cff8d91461005a578063715018a61461007c5780638da5cb5b14610091578063e3a9db1a146100c3578063f2fde38b14610107578063f340fa0114610127575b600080fd5b34801561006657600080fd5b5061007a6100753660046104d2565b61013a565b005b34801561008857600080fd5b5061007a6101e1565b34801561009d57600080fd5b506100a661021c565b6040516001600160a01b0390911681526020015b60405180910390f35b3480156100cf57600080fd5b506100f96100de3660046104d2565b6001600160a01b031660009081526001602052604090205490565b6040519081526020016100ba565b34801561011357600080fd5b5061007a6101223660046104d2565b61022b565b61007a6101353660046104d2565b6102cb565b3361014361021c565b6001600160a01b0316146101725760405162461bcd60e51b8152600401610169906104f6565b60405180910390fd5b6001600160a01b038116600081815260016020526040812080549190559061019a9082610364565b816001600160a01b03167f7084f5476618d8e60b11ef0d7d3f06914655adb8793e28ff7f018d4c76d505d5826040516101d591815260200190565b60405180910390a25050565b336101ea61021c565b6001600160a01b0316146102105760405162461bcd60e51b8152600401610169906104f6565b61021a6000610482565b565b6000546001600160a01b031690565b3361023461021c565b6001600160a01b03161461025a5760405162461bcd60e51b8152600401610169906104f6565b6001600160a01b0381166102bf5760405162461bcd60e51b815260206004820152602660248201527f4f776e61626c653a206e6577206f776e657220697320746865207a65726f206160448201526564647265737360d01b6064820152608401610169565b6102c881610482565b50565b336102d461021c565b6001600160a01b0316146102fa5760405162461bcd60e51b8152600401610169906104f6565b6001600160a01b03811660009081526001602052604081208054349283929161032490849061052b565b90915550506040518181526001600160a01b038316907f2da466a7b24304f47e87fa2e1e5a81b9831ce54fec19055ce277ca2f39ba42c4906020016101d5565b804710156103b45760405162461bcd60e51b815260206004820152601d60248201527f416464726573733a20696e73756666696369656e742062616c616e63650000006044820152606401610169565b6000826001600160a01b03168260405160006040518083038185875af1925050503d8060008114610401576040519150601f19603f3d011682016040523d82523d6000602084013e610406565b606091505b505090508061047d5760405162461bcd60e51b815260206004820152603a60248201527f416464726573733a20756e61626c6520746f2073656e642076616c75652c207260448201527f6563697069656e74206d617920686176652072657665727465640000000000006064820152608401610169565b505050565b600080546001600160a01b038381166001600160a01b0319831681178455604051919092169283917f8be0079c531659141344cd1fd0a4f28419497f9722a3daafe3b4186f6b6457e09190a35050565b6000602082840312156104e457600080fd5b81356104ef81610551565b9392505050565b6020808252818101527f4f776e61626c653a2063616c6c6572206973206e6f7420746865206f776e6572604082015260600190565b6000821982111561054c57634e487b7160e01b600052601160045260246000fd5b500190565b6001600160a01b03811681146102c857600080fdfea264697066735822122002266e7113f574851970fbf33584e072a6d7326a4a0803476de99fa576416a8864736f6c63430008060033",
  "linkReferences": {},
  "deployedLinkReferences": {}
}