{
  "address": "0xCf7Ed3AccA5a467e9e704C703E8D87F634fB0Fc9",
  "abi": [
    {
      "inputs": [],
      "stateMutability": "nonpayable",
      "type": "constructor"
    },
    {
      "anonymous": false,
      "inputs": [
        {
          "indexed": false,
          "internalType": "uint256",
          "name": "auctionId",
          "type": "uint256"
        },
        {
          "indexed": false,
          "internalType": "address",
          "name": "editionContract",
          "type": "address"
        },
        {
          "indexed": false,
          "internalType": "bool",
          "name": "approved",
          "type": "bool"
        }
      ],
      "name": "AuctionApprovalUpdated",
      "type": "event"
    },
    {
      "anonymous": false,
      "inputs": [
        {
          "indexed": false,
          "internalType": "uint256",
          "name": "auctionId",
          "type": "uint256"
        },
        {
          "indexed": false,
          "internalType": "address",
          "name": "creator",
          "type": "address"
        },
        {
          "indexed": false,
          "internalType": "address",
          "name": "editionContract",
          "type": "address"
        },
        {
          "indexed": false,
          "internalType": "uint256",
          "name": "startTimestamp",
          "type": "uint256"
        },
        {
          "indexed": false,
          "internalType": "uint256",
          "name": "duration",
          "type": "uint256"
        },
        {
          "indexed": false,
          "internalType": "uint256",
          "name": "startPrice",
          "type": "uint256"
        },
        {
          "indexed": false,
          "internalType": "uint256",
          "name": "endPrice",
          "type": "uint256"
        },
        {
          "indexed": false,
          "internalType": "uint8",
          "name": "numberOfPriceDrops",
          "type": "uint8"
        },
        {
          "indexed": false,
          "internalType": "address",
          "name": "curator",
          "type": "address"
        },
        {
          "indexed": false,
          "internalType": "uint256",
          "name": "curatorRoyaltyBPS",
          "type": "uint256"
        },
        {
          "indexed": false,
          "internalType": "address",
          "name": "auctionCurrency",
          "type": "address"
        }
      ],
      "name": "AuctionCreated",
      "type": "event"
    },
    {
      "anonymous": false,
      "inputs": [
        {
          "indexed": false,
          "internalType": "uint256",
          "name": "auctionId",
          "type": "uint256"
        },
        {
          "indexed": false,
          "internalType": "address",
          "name": "tokenContract",
          "type": "address"
        },
        {
          "indexed": false,
          "internalType": "uint256",
          "name": "price",
          "type": "uint256"
        },
        {
          "indexed": false,
          "internalType": "address",
          "name": "owner",
          "type": "address"
        }
      ],
      "name": "EditionPurchased",
      "type": "event"
    },
    {
      "inputs": [
        {
          "internalType": "uint256",
          "name": "",
          "type": "uint256"
        }
      ],
      "name": "auctions",
      "outputs": [
        {
          "internalType": "address",
          "name": "editionContract",
          "type": "address"
        },
        {
          "internalType": "uint256",
          "name": "startTimestamp",
          "type": "uint256"
        },
        {
          "internalType": "uint256",
          "name": "duration",
          "type": "uint256"
        },
        {
          "internalType": "uint256",
          "name": "startPrice",
          "type": "uint256"
        },
        {
          "internalType": "uint256",
          "name": "endPrice",
          "type": "uint256"
        },
        {
          "internalType": "uint8",
          "name": "numberOfPriceDrops",
          "type": "uint8"
        },
        {
          "internalType": "address",
          "name": "creator",
          "type": "address"
        },
        {
          "internalType": "uint256",
          "name": "stepPrice",
          "type": "uint256"
        },
        {
          "internalType": "uint256",
          "name": "stepTime",
          "type": "uint256"
        },
        {
          "internalType": "bool",
          "name": "approved",
          "type": "bool"
        },
        {
          "internalType": "address",
          "name": "curator",
          "type": "address"
        },
        {
          "internalType": "uint256",
          "name": "curatorRoyaltyBPS",
          "type": "uint256"
        },
        {
          "internalType": "address",
          "name": "auctionCurrency",
          "type": "address"
        }
      ],
      "stateMutability": "view",
      "type": "function"
    },
    {
      "inputs": [
        {
          "internalType": "address",
          "name": "editionContract",
          "type": "address"
        },
        {
          "internalType": "uint256",
          "name": "startTimestamp",
          "type": "uint256"
        },
        {
          "internalType": "uint256",
          "name": "duration",
          "type": "uint256"
        },
        {
          "internalType": "uint256",
          "name": "startPrice",
          "type": "uint256"
        },
        {
          "internalType": "uint256",
          "name": "endPrice",
          "type": "uint256"
        },
        {
          "internalType": "uint8",
          "name": "numberOfPriceDrops",
          "type": "uint8"
        },
        {
          "internalType": "address",
          "name": "curator",
          "type": "address"
        },
        {
          "internalType": "uint256",
          "name": "curatorRoyaltyBPS",
          "type": "uint256"
        },
        {
          "internalType": "address",
          "name": "auctionCurrency",
          "type": "address"
        }
      ],
      "name": "createAuction",
      "outputs": [
        {
          "internalType": "uint256",
          "name": "",
          "type": "uint256"
        }
      ],
      "stateMutability": "nonpayable",
      "type": "function"
    },
    {
      "inputs": [
        {
          "internalType": "uint256",
          "name": "auctionId",
          "type": "uint256"
        }
      ],
      "name": "getSalePrice",
      "outputs": [
        {
          "internalType": "uint256",
          "name": "",
          "type": "uint256"
        }
      ],
      "stateMutability": "view",
      "type": "function"
    },
    {
      "inputs": [
        {
          "internalType": "uint256",
          "name": "auctionId",
          "type": "uint256"
        }
      ],
      "name": "numberCanMint",
      "outputs": [
        {
          "internalType": "uint256",
          "name": "",
          "type": "uint256"
        }
      ],
      "stateMutability": "view",
      "type": "function"
    },
    {
      "inputs": [
        {
          "internalType": "address",
          "name": "dest",
          "type": "address"
        }
      ],
      "name": "payments",
      "outputs": [
        {
          "internalType": "uint256",
          "name": "",
          "type": "uint256"
        }
      ],
      "stateMutability": "view",
      "type": "function"
    },
    {
      "inputs": [
        {
          "internalType": "uint256",
          "name": "auctionId",
          "type": "uint256"
        },
        {
          "internalType": "uint256",
          "name": "amount",
          "type": "uint256"
        }
      ],
      "name": "purchase",
      "outputs": [
        {
          "internalType": "uint256",
          "name": "",
          "type": "uint256"
        }
      ],
      "stateMutability": "payable",
      "type": "function"
    },
    {
      "inputs": [
        {
          "internalType": "uint256",
          "name": "auctionId",
          "type": "uint256"
        },
        {
          "internalType": "bool",
          "name": "approved",
          "type": "bool"
        }
      ],
      "name": "setAuctionApproval",
      "outputs": [],
      "stateMutability": "nonpayable",
      "type": "function"
    },
    {
      "inputs": [
        {
          "internalType": "address payable",
          "name": "payee",
          "type": "address"
        }
      ],
      "name": "withdrawPayments",
      "outputs": [],
      "stateMutability": "nonpayable",
      "type": "function"
    }
  ],
  "transactionHash": "0xefd234df67c724e21b1551bc05fc3e3d7ed5a4f846838179e46da5d00447024e",
  "args": [],
  "solcInputHash": "bf496a8226594eb64d414075da310022",
  "bytecode": "0x60a060405234801561001057600080fd5b50600160005560405161002290610063565b604051809103906000f08015801561003e573d6000803e3d6000fd5b5060601b6001600160601b03191660805260018054607860ff19909116179055610070565b61061a80611c5683390190565b60805160601c611bc16100956000396000818161021c01526111420152611bc16000f3fe60806040526004361061006b5760003560e01c806331b3eb941461007057806355e91d1614610092578063571a26a0146100c557806370876c9814610172578063973ddb4a14610185578063d9a17be2146101a5578063e2982c21146101c5578063f8eb5fc5146101e5575b600080fd5b34801561007c57600080fd5b5061009061008b366004611768565b610205565b005b34801561009e57600080fd5b506100b26100ad366004611854565b610286565b6040519081526020015b60405180910390f35b3480156100d157600080fd5b506101596100e0366004611854565b600260208190526000918252604090912080546001820154928201546003830154600484015460058501546006860154600787015460088801546009890154600a909901546001600160a01b039889169a9997989697959660ff808716976101009788900483169791851694919091048216929091168d565b6040516100bc9d9c9b9a99989796959493929190611908565b6100b26101803660046118b6565b610297565b34801561019157600080fd5b506100906101a0366004611886565b610918565b3480156101b157600080fd5b506100b26101c03660046117a2565b610a0d565b3480156101d157600080fd5b506100b26101e0366004611768565b611128565b3480156101f157600080fd5b506100b2610200366004611854565b6111c7565b6040516351cff8d960e01b81526001600160a01b037f000000000000000000000000000000000000000000000000000000000000000016906351cff8d9906102519084906004016118f4565b600060405180830381600087803b15801561026b57600080fd5b505af115801561027f573d6000803e3d6000fd5b5050505050565b6000610291826111d2565b92915050565b6000826102a38161121f565b6102c85760405162461bcd60e51b81526004016102bf90611a2b565b60405180910390fd5b60008481526002602052604090206008015460ff166103295760405162461bcd60e51b815260206004820152601d60248201527f41756374696f6e20686173206e6f74206265656e20617070726f76656400000060448201526064016102bf565b60008481526002602052604090206001015442101561038a5760405162461bcd60e51b815260206004820152601b60248201527f41756374696f6e20686173206e6f74207374617274656420796574000000000060448201526064016102bf565b610393846111d2565b6103ca5760405162461bcd60e51b815260206004820152600860248201526714dbdb19081bdd5d60c21b60448201526064016102bf565b60006103d585611244565b9050808410156104335760405162461bcd60e51b815260206004820152602360248201527f4d757374206265206d6f7265206f7220657175616c20746f2073616c6520707260448201526269636560e81b60648201526084016102bf565b60408051600180825281830190925260009160208083019080368337019050509050338160008151811061046957610469611b4f565b6001600160a01b03909216602092830291909101909101528161057457600086815260026020526040908190205490517fc30e87332dc11a80748906cfe42d2728067b8207771bbe9e0c96259f2e7c8c97916104d49189916001600160a01b03169086903390611a5a565b60405180910390a160008681526002602052604090819020549051630f6a934960e01b81526001600160a01b0390911690630f6a934990610519908490600401611996565b602060405180830381600087803b15801561053357600080fd5b505af1158015610547573d6000803e3d6000fd5b505050506040513d601f19601f8201168201806040525081019061056b919061186d565b93505050610911565b600086815260026020526040808220600a015490516370a0823160e01b81526001600160a01b03909116919082906370a08231906105b69030906004016118f4565b60206040518083038186803b1580156105ce57600080fd5b505afa1580156105e2573d6000803e3d6000fd5b505050506040513d601f19601f82011682018060405250810190610606919061186d565b905061061d6001600160a01b038316333087611371565b6040516370a0823160e01b81526000906001600160a01b038416906370a082319061064c9030906004016118f4565b60206040518083038186803b15801561066457600080fd5b505afa158015610678573d6000803e3d6000fd5b505050506040513d601f19601f8201168201806040525081019061069c919061186d565b9050806106a98684611a81565b146107315760405162461bcd60e51b815260206004820152604c60248201527f5f68616e646c65496e636f6d696e675472616e7366657220746f6b656e20747260448201527f616e736665722063616c6c20646964206e6f74207472616e736665722065787060648201526b1958dd195908185b5bdd5b9d60a21b608482015260a4016102bf565b60008981526002602052604090206008015461010090046001600160a01b031661078857600089815260026020526040902060050154610783906001600160a01b0385811691610100900416876113e2565b610824565b6000898152600260205260408120600901546107b390612710906107ad908990611412565b90611425565b60008b8152600260205260409020600801549091506107e4906001600160a01b0386811691610100900416836113e2565b60006107f08783611431565b60008c815260026020526040902060050154909150610821906001600160a01b0387811691610100900416836113e2565b50505b600089815260026020526040908190205490517fc30e87332dc11a80748906cfe42d2728067b8207771bbe9e0c96259f2e7c8c9791610872918c916001600160a01b03169089903390611a5a565b60405180910390a160008981526002602052604090819020549051630f6a934960e01b81526001600160a01b0390911690630f6a9349906108b7908790600401611996565b602060405180830381600087803b1580156108d157600080fd5b505af11580156108e5573d6000803e3d6000fd5b505050506040513d601f19601f82011682018060405250810190610909919061186d565b965050505050505b5092915050565b816109228161121f565b61093e5760405162461bcd60e51b81526004016102bf90611a2b565b60008381526002602052604090206008015461010090046001600160a01b0316331461099e5760405162461bcd60e51b815260206004820152600f60248201526e36bab9ba1031329031bab930ba37b960891b60448201526064016102bf565b60008381526002602052604090206001015442106109fe5760405162461bcd60e51b815260206004820152601b60248201527f41756374696f6e2068617320616c72656164792073746172746564000000000060448201526064016102bf565b610a08838361143d565b505050565b600060026000541415610a625760405162461bcd60e51b815260206004820152601f60248201527f5265656e7472616e637947756172643a207265656e7472616e742063616c6c0060448201526064016102bf565b60026000556040516301ffc9a760e01b81526001600160a01b038b16906301ffc9a790610a9a906380ac58cd60e01b906004016119e3565b60206040518083038186803b158015610ab257600080fd5b505afa158015610ac6573d6000803e3d6000fd5b505050506040513d601f19601f82011682018060405250810190610aea9190611837565b610b365760405162461bcd60e51b815260206004820152601d60248201527f446f65736e277420737570706f7274204e465420696e7465726661636500000060448201526064016102bf565b6040516301ffc9a760e01b81526001600160a01b038b16906301ffc9a790610b69906317e28f2d60e11b906004016119e3565b60206040518083038186803b158015610b8157600080fd5b505afa158015610b95573d6000803e3d6000fd5b505050506040513d601f19601f82011682018060405250810190610bb99190611837565b610c195760405162461bcd60e51b815260206004820152602b60248201527f446f65736e277420737570706f7274205a6f7261204e46542045646974696f6e60448201526a7320696e7465726661636560a81b60648201526084016102bf565b60008a6001600160a01b0316638da5cb5b6040518163ffffffff1660e01b815260040160206040518083038186803b158015610c5457600080fd5b505afa158015610c68573d6000803e3d6000fd5b505050506040513d601f19601f82011682018060405250810190610c8c9190611785565b9050336001600160a01b03821614610cf15760405162461bcd60e51b815260206004820152602260248201527f43616c6c6572206d7573742062652063726561746f72206f662065646974696f6044820152616e7360f01b60648201526084016102bf565b868811610d525760405162461bcd60e51b815260206004820152602960248201527f5374617274207072696365206d75737420626520686967686572207468656e20604482015268656e6420707269636560b81b60648201526084016102bf565b6001600160a01b038516610dbc578315610dbc5760405162461bcd60e51b815260206004820152602560248201527f526f79616c7469657320776f756c642062652073656e7420696e746f20746865604482015264081d9bda5960da1b60648201526084016102bf565b6000610dca8a8a8a8a6114b0565b600154602082015191925060ff161115610e3f5760405162461bcd60e51b815260206004820152603060248201527f537465702074696d65206d75737420626520686967686572207468616e206d6960448201526f6e696d75696d20737465702074696d6560801b60648201526084016102bf565b6000610e4a60035490565b9050604051806101a001604052808e6001600160a01b031681526020018d81526020018c81526020018b81526020018a81526020018960ff168152602001846001600160a01b031681526020018360000151815260200183602001518152602001600015158152602001886001600160a01b03168152602001878152602001866001600160a01b03168152506002600083815260200190815260200160002060008201518160000160006101000a8154816001600160a01b0302191690836001600160a01b031602179055506020820151816001015560408201518160020155606082015181600301556080820151816004015560a08201518160050160006101000a81548160ff021916908360ff16021790555060c08201518160050160016101000a8154816001600160a01b0302191690836001600160a01b0316021790555060e0820151816006015561010082015181600701556101208201518160080160006101000a81548160ff0219169083151502179055506101408201518160080160016101000a8154816001600160a01b0302191690836001600160a01b03160217905550610160820151816009015561018082015181600a0160006101000a8154816001600160a01b0302191690836001600160a01b0316021790555090505061103a600380546001019055565b7f17d978b085d51be1d974075d6a9c8c2ca6d2b3acd7459da63e9eb995f6fd7a2181848f8f8f8f8f8f8f8f8f6040516110d49b9a999897969594939291909a8b526001600160a01b03998a1660208c015297891660408b015260608a0196909652608089019490945260a088019290925260c087015260ff1660e08601528316610100850152610120840152166101408201526101600190565b60405180910390a16001600160a01b03871615806111035750826001600160a01b0316876001600160a01b0316145b156111135761111381600161143d565b60016000559c9b505050505050505050505050565b6040516371d4ed8d60e11b81526000906001600160a01b037f0000000000000000000000000000000000000000000000000000000000000000169063e3a9db1a906111779085906004016118f4565b60206040518083038186803b15801561118f57600080fd5b505afa1580156111a3573d6000803e3d6000fd5b505050506040513d601f19601f82011682018060405250810190610291919061186d565b600061029182611244565b6000818152600260209081526040808320548151630b65b6e760e01b815291516001600160a01b0390911692630b65b6e79260048082019391829003018186803b15801561118f57600080fd5b60009081526002602052604090206005015461010090046001600160a01b0316151590565b600081815260026020819052604082209081015460019091015461126791611506565b421115611284575060009081526002602052604090206004015490565b600082815260026020526040902060078101546001909101546112a691611506565b4210156112c3575060009081526002602052604090206003015490565b6000828152600260205260408120600101546112e0904290611431565b60008481526002602052604081206007015491925090611301908390611512565b60008581526002602052604081206007015491925090611325906107ad8585611431565b9050611368611350611338600184611acc565b60008881526002602052604090206006015490611412565b60008781526002602052604090206003015490611431565b95945050505050565b6040516001600160a01b03808516602483015283166044820152606481018290526113dc9085906323b872dd60e01b906084015b60408051601f198184030181529190526020810180516001600160e01b03166001600160e01b03199093169290921790915261151e565b50505050565b6040516001600160a01b038316602482015260448101829052610a0890849063a9059cbb60e01b906064016113a5565b600061141e8284611aad565b9392505050565b600061141e8284611a99565b600061141e8284611acc565b60008281526002602090815260409182902060088101805485151560ff199091168117909155905483518681526001600160a01b03909116928101929092528183015290517fb46f4988335ad625129457eeb1dce85f43960baf55c208c4e6be1b4402af59269181900360600190a15050565b604080518082019091526000808252602082015260408051808201909152600080825260208201526114e960ff84166107ad8787611431565b81526114f88660ff8516611425565b602082015295945050505050565b600061141e8284611a81565b600061141e8284611b0f565b6000611573826040518060400160405280602081526020017f5361666545524332303a206c6f772d6c6576656c2063616c6c206661696c6564815250856001600160a01b03166115f09092919063ffffffff16565b805190915015610a0857808060200190518101906115919190611837565b610a085760405162461bcd60e51b815260206004820152602a60248201527f5361666545524332303a204552433230206f7065726174696f6e20646964206e6044820152691bdd081cdd58d8d9595960b21b60648201526084016102bf565b60606115ff8484600085611607565b949350505050565b6060824710156116685760405162461bcd60e51b815260206004820152602660248201527f416464726573733a20696e73756666696369656e742062616c616e636520666f6044820152651c8818d85b1b60d21b60648201526084016102bf565b843b6116b65760405162461bcd60e51b815260206004820152601d60248201527f416464726573733a2063616c6c20746f206e6f6e2d636f6e747261637400000060448201526064016102bf565b600080866001600160a01b031685876040516116d291906118d8565b60006040518083038185875af1925050503d806000811461170f576040519150601f19603f3d011682016040523d82523d6000602084013e611714565b606091505b509150915061172482828661172f565b979650505050505050565b6060831561173e57508161141e565b82511561174e5782518084602001fd5b8160405162461bcd60e51b81526004016102bf91906119f8565b60006020828403121561177a57600080fd5b813561141e81611b65565b60006020828403121561179757600080fd5b815161141e81611b65565b60008060008060008060008060006101208a8c0312156117c157600080fd5b89356117cc81611b65565b985060208a0135975060408a0135965060608a0135955060808a0135945060a08a013560ff811681146117fe57600080fd5b935060c08a013561180e81611b65565b925060e08a013591506101008a013561182681611b65565b809150509295985092959850929598565b60006020828403121561184957600080fd5b815161141e81611b7d565b60006020828403121561186657600080fd5b5035919050565b60006020828403121561187f57600080fd5b5051919050565b6000806040838503121561189957600080fd5b8235915060208301356118ab81611b7d565b809150509250929050565b600080604083850312156118c957600080fd5b50508035926020909101359150565b600082516118ea818460208701611ae3565b9190910192915050565b6001600160a01b0391909116815260200190565b6001600160a01b038e81168252602082018e9052604082018d9052606082018c9052608082018b905260ff8a1660a083015288811660c083015260e08201889052610100820187905285151561012083015284166101408201526101a08101836101608301526119846101808301846001600160a01b03169052565b9e9d5050505050505050505050505050565b6020808252825182820181905260009190848201906040850190845b818110156119d75783516001600160a01b0316835292840192918401916001016119b2565b50909695505050505050565b6001600160e01b031991909116815260200190565b6020815260008251806020840152611a17816040850160208701611ae3565b601f01601f19169190910160400192915050565b602080825260159082015274105d58dd1a5bdb88191bd95cdb89dd08195e1a5cdd605a1b604082015260600190565b9384526001600160a01b039283166020850152604084019190915216606082015260800190565b60008219821115611a9457611a94611b23565b500190565b600082611aa857611aa8611b39565b500490565b6000816000190483118215151615611ac757611ac7611b23565b500290565b600082821015611ade57611ade611b23565b500390565b60005b83811015611afe578181015183820152602001611ae6565b838111156113dc5750506000910152565b600082611b1e57611b1e611b39565b500690565b634e487b7160e01b600052601160045260246000fd5b634e487b7160e01b600052601260045260246000fd5b634e487b7160e01b600052603260045260246000fd5b6001600160a01b0381168114611b7a57600080fd5b50565b8015158114611b7a57600080fdfea2646970667358221220a2dfe071084ae878e077229783dfc8831f10c897f5f07d0d5f282d0307dc9d1b64736f6c63430008060033608060405234801561001057600080fd5b5061001a3361001f565b61006f565b600080546001600160a01b038381166001600160a01b0319831681178455604051919092169283917f8be0079c531659141344cd1fd0a4f28419497f9722a3daafe3b4186f6b6457e09190a35050565b61059c8061007e6000396000f3fe6080604052600436106100555760003560e01c806351cff8d91461005a578063715018a61461007c5780638da5cb5b14610091578063e3a9db1a146100c3578063f2fde38b14610107578063f340fa0114610127575b600080fd5b34801561006657600080fd5b5061007a6100753660046104d2565b61013a565b005b34801561008857600080fd5b5061007a6101e1565b34801561009d57600080fd5b506100a661021c565b6040516001600160a01b0390911681526020015b60405180910390f35b3480156100cf57600080fd5b506100f96100de3660046104d2565b6001600160a01b031660009081526001602052604090205490565b6040519081526020016100ba565b34801561011357600080fd5b5061007a6101223660046104d2565b61022b565b61007a6101353660046104d2565b6102cb565b3361014361021c565b6001600160a01b0316146101725760405162461bcd60e51b8152600401610169906104f6565b60405180910390fd5b6001600160a01b038116600081815260016020526040812080549190559061019a9082610364565b816001600160a01b03167f7084f5476618d8e60b11ef0d7d3f06914655adb8793e28ff7f018d4c76d505d5826040516101d591815260200190565b60405180910390a25050565b336101ea61021c565b6001600160a01b0316146102105760405162461bcd60e51b8152600401610169906104f6565b61021a6000610482565b565b6000546001600160a01b031690565b3361023461021c565b6001600160a01b03161461025a5760405162461bcd60e51b8152600401610169906104f6565b6001600160a01b0381166102bf5760405162461bcd60e51b815260206004820152602660248201527f4f776e61626c653a206e6577206f776e657220697320746865207a65726f206160448201526564647265737360d01b6064820152608401610169565b6102c881610482565b50565b336102d461021c565b6001600160a01b0316146102fa5760405162461bcd60e51b8152600401610169906104f6565b6001600160a01b03811660009081526001602052604081208054349283929161032490849061052b565b90915550506040518181526001600160a01b038316907f2da466a7b24304f47e87fa2e1e5a81b9831ce54fec19055ce277ca2f39ba42c4906020016101d5565b804710156103b45760405162461bcd60e51b815260206004820152601d60248201527f416464726573733a20696e73756666696369656e742062616c616e63650000006044820152606401610169565b6000826001600160a01b03168260405160006040518083038185875af1925050503d8060008114610401576040519150601f19603f3d011682016040523d82523d6000602084013e610406565b606091505b505090508061047d5760405162461bcd60e51b815260206004820152603a60248201527f416464726573733a20756e61626c6520746f2073656e642076616c75652c207260448201527f6563697069656e74206d617920686176652072657665727465640000000000006064820152608401610169565b505050565b600080546001600160a01b038381166001600160a01b0319831681178455604051919092169283917f8be0079c531659141344cd1fd0a4f28419497f9722a3daafe3b4186f6b6457e09190a35050565b6000602082840312156104e457600080fd5b81356104ef81610551565b9392505050565b6020808252818101527f4f776e61626c653a2063616c6c6572206973206e6f7420746865206f776e6572604082015260600190565b6000821982111561054c57634e487b7160e01b600052601160045260246000fd5b500190565b6001600160a01b03811681146102c857600080fdfea264697066735822122002266e7113f574851970fbf33584e072a6d7326a4a0803476de99fa576416a8864736f6c63430008060033",
  "devdoc": {
    "kind": "dev",
    "methods": {
      "createAuction(address,uint256,uint256,uint256,uint256,uint8,address,uint256,address)": {
        "details": "Store the auction details in the auctions mapping and emit an AuctionCreated event. If there is no curator, or if the curator is the auction creator, automatically approve the auction and emit an AuctionApproved event.",
        "params": {
          "curator": "the address of the allocated curator",
          "curatorRoyaltyBPS": "the royalty the curator will recieve per purchase in basis points",
          "duration": "the duration the auction will run for",
          "editionContract": "the contract of which NFT's will be minted",
          "endPrice": "the price in eth the auction will end at",
          "numberOfPriceDrops": "the number of times the price will drop between starting and ending price",
          "startPrice": "the price in eth the auction will start at",
          "startTimestamp": "the time the auction will start"
        },
        "returns": {
          "_0": "auction id"
        }
      },
      "getSalePrice(uint256)": {
        "details": "calculates the price based on the block.timestamp",
        "params": {
          "auctionId": "the id of the auction"
        },
        "returns": {
          "_0": "price in wei"
        }
      },
      "payments(address)": {
        "details": "Returns the payments owed to an address.",
        "params": {
          "dest": "The creditor's address."
        }
      },
      "purchase(uint256,uint256)": {
        "details": "mints an NFT and splits purchase fee between creator and curator",
        "params": {
          "auctionId": "the id of the auction"
        },
        "returns": {
          "_0": "the id of the NFT"
        }
      },
      "setAuctionApproval(uint256,bool)": {
        "details": "sets auction approved to approval and emits an AuctionApprovalUpdated event",
        "params": {
          "approved": "the curators approval decision",
          "auctionId": "the id of the auction"
        }
      },
      "withdrawPayments(address)": {
        "details": "Withdraw accumulated payments, forwarding all gas to the recipient. Note that _any_ account can call this function, not just the `payee`. This means that contracts unaware of the `PullPayment` protocol can still receive funds this way, by having a separate account call {withdrawPayments}. WARNING: Forwarding all gas opens the door to reentrancy vulnerabilities. Make sure you trust the recipient, or are either following the checks-effects-interactions pattern or using {ReentrancyGuard}.",
        "params": {
          "payee": "Whose payments will be withdrawn."
        }
      }
    },
    "title": "An open dutch auction house, for initial drops of limited edition nft contracts.",
    "version": 1
  },
  "userdoc": {
    "kind": "user",
    "methods": {
      "constructor": {
        "notice": "Constructor"
      },
      "createAuction(address,uint256,uint256,uint256,uint256,uint8,address,uint256,address)": {
        "notice": "Create an auction."
      },
      "getSalePrice(uint256)": {
        "notice": "gets the current sale price of an auction"
      },
      "purchase(uint256,uint256)": {
        "notice": "Purchases an NFT"
      },
      "setAuctionApproval(uint256,bool)": {
        "notice": "allows curator to approve auction"
      }
    },
    "version": 1
  },
  "storageLayout": {
    "storage": [
      {
        "astId": 2126,
        "contract": "contracts/EditionsAuction.sol:EditionsAuction",
        "label": "_status",
        "offset": 0,
        "slot": "0",
        "type": "t_uint256"
      },
      {
        "astId": 4617,
        "contract": "contracts/EditionsAuction.sol:EditionsAuction",
        "label": "minStepTime",
        "offset": 0,
        "slot": "1",
        "type": "t_uint8"
      },
      {
        "astId": 4628,
        "contract": "contracts/EditionsAuction.sol:EditionsAuction",
        "label": "auctions",
        "offset": 0,
        "slot": "2",
        "type": "t_mapping(t_uint256,t_struct(Auction)5362_storage)"
      },
      {
        "astId": 4631,
        "contract": "contracts/EditionsAuction.sol:EditionsAuction",
        "label": "_auctionIdTracker",
        "offset": 0,
        "slot": "3",
        "type": "t_struct(Counter)2898_storage"
      }
    ],
    "types": {
      "t_address": {
        "encoding": "inplace",
        "label": "address",
        "numberOfBytes": "20"
      },
      "t_bool": {
        "encoding": "inplace",
        "label": "bool",
        "numberOfBytes": "1"
      },
      "t_mapping(t_uint256,t_struct(Auction)5362_storage)": {
        "encoding": "mapping",
        "key": "t_uint256",
        "label": "mapping(uint256 => struct IEditionsAuction.Auction)",
        "numberOfBytes": "32",
        "value": "t_struct(Auction)5362_storage"
      },
      "t_struct(Auction)5362_storage": {
        "encoding": "inplace",
        "label": "struct IEditionsAuction.Auction",
        "members": [
          {
            "astId": 5337,
            "contract": "contracts/EditionsAuction.sol:EditionsAuction",
            "label": "editionContract",
            "offset": 0,
            "slot": "0",
            "type": "t_address"
          },
          {
            "astId": 5339,
            "contract": "contracts/EditionsAuction.sol:EditionsAuction",
            "label": "startTimestamp",
            "offset": 0,
            "slot": "1",
            "type": "t_uint256"
          },
          {
            "astId": 5341,
            "contract": "contracts/EditionsAuction.sol:EditionsAuction",
            "label": "duration",
            "offset": 0,
            "slot": "2",
            "type": "t_uint256"
          },
          {
            "astId": 5343,
            "contract": "contracts/EditionsAuction.sol:EditionsAuction",
            "label": "startPrice",
            "offset": 0,
            "slot": "3",
            "type": "t_uint256"
          },
          {
            "astId": 5345,
            "contract": "contracts/EditionsAuction.sol:EditionsAuction",
            "label": "endPrice",
            "offset": 0,
            "slot": "4",
            "type": "t_uint256"
          },
          {
            "astId": 5347,
            "contract": "contracts/EditionsAuction.sol:EditionsAuction",
            "label": "numberOfPriceDrops",
            "offset": 0,
            "slot": "5",
            "type": "t_uint8"
          },
          {
            "astId": 5349,
            "contract": "contracts/EditionsAuction.sol:EditionsAuction",
            "label": "creator",
            "offset": 1,
            "slot": "5",
            "type": "t_address"
          },
          {
            "astId": 5351,
            "contract": "contracts/EditionsAuction.sol:EditionsAuction",
            "label": "stepPrice",
            "offset": 0,
            "slot": "6",
            "type": "t_uint256"
          },
          {
            "astId": 5353,
            "contract": "contracts/EditionsAuction.sol:EditionsAuction",
            "label": "stepTime",
            "offset": 0,
            "slot": "7",
            "type": "t_uint256"
          },
          {
            "astId": 5355,
            "contract": "contracts/EditionsAuction.sol:EditionsAuction",
            "label": "approved",
            "offset": 0,
            "slot": "8",
            "type": "t_bool"
          },
          {
            "astId": 5357,
            "contract": "contracts/EditionsAuction.sol:EditionsAuction",
            "label": "curator",
            "offset": 1,
            "slot": "8",
            "type": "t_address"
          },
          {
            "astId": 5359,
            "contract": "contracts/EditionsAuction.sol:EditionsAuction",
            "label": "curatorRoyaltyBPS",
            "offset": 0,
            "slot": "9",
            "type": "t_uint256"
          },
          {
            "astId": 5361,
            "contract": "contracts/EditionsAuction.sol:EditionsAuction",
            "label": "auctionCurrency",
            "offset": 0,
            "slot": "10",
            "type": "t_address"
          }
        ],
        "numberOfBytes": "352"
      },
      "t_struct(Counter)2898_storage": {
        "encoding": "inplace",
        "label": "struct Counters.Counter",
        "members": [
          {
            "astId": 2897,
            "contract": "contracts/EditionsAuction.sol:EditionsAuction",
            "label": "_value",
            "offset": 0,
            "slot": "0",
            "type": "t_uint256"
          }
        ],
        "numberOfBytes": "32"
      },
      "t_uint256": {
        "encoding": "inplace",
        "label": "uint256",
        "numberOfBytes": "32"
      },
      "t_uint8": {
        "encoding": "inplace",
        "label": "uint8",
        "numberOfBytes": "1"
      }
    }
  }
}