{
  "address": "0x9fE46736679d2D9a65F0992F2272dE9f3c7fa6e0",
  "abi": [
    {
      "inputs": [
        {
          "internalType": "address",
          "name": "_implementation",
          "type": "address"
        }
      ],
      "stateMutability": "nonpayable",
      "type": "constructor"
    },
    {
      "anonymous": false,
      "inputs": [
        {
          "indexed": true,
          "internalType": "uint256",
          "name": "editionId",
          "type": "uint256"
        },
        {
          "indexed": true,
          "internalType": "address",
          "name": "creator",
          "type": "address"
        },
        {
          "indexed": false,
          "internalType": "uint256",
          "name": "editionSize",
          "type": "uint256"
        },
        {
          "indexed": false,
          "internalType": "address",
          "name": "editionContractAddress",
          "type": "address"
        }
      ],
      "name": "CreatedEdition",
      "type": "event"
    },
    {
      "inputs": [
        {
          "internalType": "string",
          "name": "_name",
          "type": "string"
        },
        {
          "internalType": "string",
          "name": "_symbol",
          "type": "string"
        },
        {
          "internalType": "string",
          "name": "_description",
          "type": "string"
        },
        {
          "internalType": "string",
          "name": "_animationUrl",
          "type": "string"
        },
        {
          "internalType": "bytes32",
          "name": "_animationHash",
          "type": "bytes32"
        },
        {
          "internalType": "string",
          "name": "_imageUrl",
          "type": "string"
        },
        {
          "internalType": "bytes32",
          "name": "_imageHash",
          "type": "bytes32"
        },
        {
          "internalType": "uint256",
          "name": "_editionSize",
          "type": "uint256"
        },
        {
          "internalType": "uint256",
          "name": "_royaltyBPS",
          "type": "uint256"
        }
      ],
      "name": "createEdition",
      "outputs": [
        {
          "internalType": "uint256",
          "name": "",
          "type": "uint256"
        }
      ],
      "stateMutability": "nonpayable",
      "type": "function"
    },
    {
      "inputs": [
        {
          "internalType": "uint256",
          "name": "editionId",
          "type": "uint256"
        }
      ],
      "name": "getEditionAtId",
      "outputs": [
        {
          "internalType": "contract SingleEditionMintable",
          "name": "",
          "type": "address"
        }
      ],
      "stateMutability": "view",
      "type": "function"
    },
    {
      "inputs": [],
      "name": "implementation",
      "outputs": [
        {
          "internalType": "address",
          "name": "",
          "type": "address"
        }
      ],
      "stateMutability": "view",
      "type": "function"
    }
  ],
  "transactionHash": "0x0045c5f3dd38bfcf572ff5ba8e34a5e4ed852cb755be4f11a9c3782a04c628b1",
  "args": [
    "0xe7f1725E7734CE288F8367e1Bb143E90bb3F0512"
  ],
  "bytecode": "0x608060405234801561001057600080fd5b5060405161069938038061069983398101604081905261002f91610054565b600180546001600160a01b0319166001600160a01b0392909216919091179055610084565b60006020828403121561006657600080fd5b81516001600160a01b038116811461007d57600080fd5b9392505050565b610606806100936000396000f3fe608060405234801561001057600080fd5b50600436106100415760003560e01c806310c3009e146100465780635c60da1b1461006c578063ac52edfd14610097575b600080fd5b610059610054366004610394565b6100aa565b6040519081526020015b60405180910390f35b60015461007f906001600160a01b031681565b6040516001600160a01b039091168152602001610063565b61007f6100a536600461048d565b6101ca565b6000806100b660005490565b60015460408051602081018490529293506000926100f6926001600160a01b031691016040516020818303038152906040526100f190610593565b610269565b9050806001600160a01b03166325f0ea90338e8e8e8e8e8e8e8e8e6040518b63ffffffff1660e01b81526004016101369a999897969594939291906104f3565b600060405180830381600087803b15801561015057600080fd5b505af1158015610164573d6000803e3d6000fd5b5050604080518881526001600160a01b03851660208201523393508592507f152014b245a12a32e125b8a4227ff155636ca7ca6ba15d04c5d07966e55c5cc7910160405180910390a36101bb600080546001019055565b509a9950505050505050505050565b6001546040805160208101849052600092610263926001600160a01b03909116910160405160208183030381529060405261020490610593565b30604051733d602d80600a3d3981f3363d3d373d3d3d363d7360601b8152606093841b60148201526f5af43d82803e903d91602b57fd5bf3ff60801b6028820152921b6038830152604c8201526037808220606c830152605591012090565b92915050565b6000604051733d602d80600a3d3981f3363d3d373d3d3d363d7360601b81528360601b60148201526e5af43d82803e903d91602b57fd5bf360881b6028820152826037826000f59150506001600160a01b0381166102635760405162461bcd60e51b8152602060048201526017602482015276115490cc4c4d8dce8818dc99585d194c8819985a5b1959604a1b604482015260640160405180910390fd5b600082601f83011261031857600080fd5b813567ffffffffffffffff80821115610333576103336105ba565b604051601f8301601f19908116603f0116810190828211818310171561035b5761035b6105ba565b8160405283815286602085880101111561037457600080fd5b836020870160208301376000602085830101528094505050505092915050565b60008060008060008060008060006101208a8c0312156103b357600080fd5b893567ffffffffffffffff808211156103cb57600080fd5b6103d78d838e01610307565b9a5060208c01359150808211156103ed57600080fd5b6103f98d838e01610307565b995060408c013591508082111561040f57600080fd5b61041b8d838e01610307565b985060608c013591508082111561043157600080fd5b61043d8d838e01610307565b975060808c0135965060a08c013591508082111561045a57600080fd5b506104678c828d01610307565b94505060c08a0135925060e08a013591506101008a013590509295985092959850929598565b60006020828403121561049f57600080fd5b5035919050565b6000815180845260005b818110156104cc576020818501810151868301820152016104b0565b818111156104de576000602083870101525b50601f01601f19169290920160200192915050565b6001600160a01b038b168152610140602082018190526000906105188382018d6104a6565b9050828103604084015261052c818c6104a6565b90508281036060840152610540818b6104a6565b90508281036080840152610554818a6104a6565b90508760a084015282810360c084015261056e81886104a6565b60e0840196909652505061010081019290925261012090910152979650505050505050565b805160208083015191908110156105b4576000198160200360031b1b821691505b50919050565b634e487b7160e01b600052604160045260246000fdfea2646970667358221220a8a0e2a63a56fdea3cf5da12ff06a87277c493153bf6ebc110a8dcf39eb121b464736f6c63430008060033"
}